{
	"data": {
		"bytecode": {
			"linkReferences": {},
			"object": "608060405234801561001057600080fd5b50610267806100206000396000f3fe608060405234801561001057600080fd5b50600436106100415760003560e01c8063550e4e54146100465780635cd7142d1461005057806369961c231461005a575b600080fd5b61004e610064565b005b6100586100a7565b005b6100626100e2565b005b60006100a5576040517f08c379a000000000000000000000000000000000000000000000000000000000815260040161009c90610176565b60405180910390fd5b565b6040517f08c379a00000000000000000000000000000000000000000000000000000000081526004016100d9906101e2565b60405180910390fd5b60006100f1576100f0610202565b5b565b600082825260208201905092915050565b7f437573746f6d206572726f7220737472696e672066726f6d204661696c75726560008201527f5479706500000000000000000000000000000000000000000000000000000000602082015250565b60006101606024836100f3565b915061016b82610104565b604082019050919050565b6000602082019050818103600083015261018f81610153565b9050919050565b7f4572726f722066726f6d204661696c7572655479706500000000000000000000600082015250565b60006101cc6016836100f3565b91506101d782610196565b602082019050919050565b600060208201905081810360008301526101fb816101bf565b9050919050565b7f4e487b7100000000000000000000000000000000000000000000000000000000600052600160045260246000fdfea2646970667358221220651b494e896e3f8d171b1ba3dfb753ac374bb0a06a48b3d1b1ade84836d74da864736f6c63430008090033",
			"opcodes": "PUSH1 0x80 PUSH1 0x40 MSTORE CALLVALUE DUP1 ISZERO PUSH2 0x10 JUMPI PUSH1 0x0 DUP1 REVERT JUMPDEST POP PUSH2 0x267 DUP1 PUSH2 0x20 PUSH1 0x0 CODECOPY PUSH1 0x0 RETURN INVALID PUSH1 0x80 PUSH1 0x40 MSTORE CALLVALUE DUP1 ISZERO PUSH2 0x10 JUMPI PUSH1 0x0 DUP1 REVERT JUMPDEST POP PUSH1 0x4 CALLDATASIZE LT PUSH2 0x41 JUMPI PUSH1 0x0 CALLDATALOAD PUSH1 0xE0 SHR DUP1 PUSH4 0x550E4E54 EQ PUSH2 0x46 JUMPI DUP1 PUSH4 0x5CD7142D EQ PUSH2 0x50 JUMPI DUP1 PUSH4 0x69961C23 EQ PUSH2 0x5A JUMPI JUMPDEST PUSH1 0x0 DUP1 REVERT JUMPDEST PUSH2 0x4E PUSH2 0x64 JUMP JUMPDEST STOP JUMPDEST PUSH2 0x58 PUSH2 0xA7 JUMP JUMPDEST STOP JUMPDEST PUSH2 0x62 PUSH2 0xE2 JUMP JUMPDEST STOP JUMPDEST PUSH1 0x0 PUSH2 0xA5 JUMPI PUSH1 0x40 MLOAD PUSH32 0x8C379A000000000000000000000000000000000000000000000000000000000 DUP2 MSTORE PUSH1 0x4 ADD PUSH2 0x9C SWAP1 PUSH2 0x176 JUMP JUMPDEST PUSH1 0x40 MLOAD DUP1 SWAP2 SUB SWAP1 REVERT JUMPDEST JUMP JUMPDEST PUSH1 0x40 MLOAD PUSH32 0x8C379A000000000000000000000000000000000000000000000000000000000 DUP2 MSTORE PUSH1 0x4 ADD PUSH2 0xD9 SWAP1 PUSH2 0x1E2 JUMP JUMPDEST PUSH1 0x40 MLOAD DUP1 SWAP2 SUB SWAP1 REVERT JUMPDEST PUSH1 0x0 PUSH2 0xF1 JUMPI PUSH2 0xF0 PUSH2 0x202 JUMP JUMPDEST JUMPDEST JUMP JUMPDEST PUSH1 0x0 DUP3 DUP3 MSTORE PUSH1 0x20 DUP3 ADD SWAP1 POP SWAP3 SWAP2 POP POP JUMP JUMPDEST PUSH32 0x437573746F6D206572726F7220737472696E672066726F6D204661696C757265 PUSH1 0x0 DUP3 ADD MSTORE PUSH32 0x5479706500000000000000000000000000000000000000000000000000000000 PUSH1 0x20 DUP3 ADD MSTORE POP JUMP JUMPDEST PUSH1 0x0 PUSH2 0x160 PUSH1 0x24 DUP4 PUSH2 0xF3 JUMP JUMPDEST SWAP2 POP PUSH2 0x16B DUP3 PUSH2 0x104 JUMP JUMPDEST PUSH1 0x40 DUP3 ADD SWAP1 POP SWAP2 SWAP1 POP JUMP JUMPDEST PUSH1 0x0 PUSH1 0x20 DUP3 ADD SWAP1 POP DUP2 DUP2 SUB PUSH1 0x0 DUP4 ADD MSTORE PUSH2 0x18F DUP2 PUSH2 0x153 JUMP JUMPDEST SWAP1 POP SWAP2 SWAP1 POP JUMP JUMPDEST PUSH32 0x4572726F722066726F6D204661696C7572655479706500000000000000000000 PUSH1 0x0 DUP3 ADD MSTORE POP JUMP JUMPDEST PUSH1 0x0 PUSH2 0x1CC PUSH1 0x16 DUP4 PUSH2 0xF3 JUMP JUMPDEST SWAP2 POP PUSH2 0x1D7 DUP3 PUSH2 0x196 JUMP JUMPDEST PUSH1 0x20 DUP3 ADD SWAP1 POP SWAP2 SWAP1 POP JUMP JUMPDEST PUSH1 0x0 PUSH1 0x20 DUP3 ADD SWAP1 POP DUP2 DUP2 SUB PUSH1 0x0 DUP4 ADD MSTORE PUSH2 0x1FB DUP2 PUSH2 0x1BF JUMP JUMPDEST SWAP1 POP SWAP2 SWAP1 POP JUMP JUMPDEST PUSH32 0x4E487B7100000000000000000000000000000000000000000000000000000000 PUSH1 0x0 MSTORE PUSH1 0x1 PUSH1 0x4 MSTORE PUSH1 0x24 PUSH1 0x0 REVERT INVALID LOG2 PUSH5 0x6970667358 0x22 SLT KECCAK256 PUSH6 0x1B494E896E3F DUP14 OR SHL SHL LOG3 0xDF 0xB7 MSTORE8 0xAC CALLDATACOPY 0x4B 0xB0 LOG0 PUSH11 0x48B3D1B1ADE84836D74DA8 PUSH5 0x736F6C6343 STOP ADDMOD MULMOD STOP CALLER "
		},
		"gasEstimates": {
			"creation": {
				"codeDepositCost": "123000",
				"executionCost": "171",
				"totalCost": "123171"
			},
			"external": {
				"assertFailure()": "212",
				"requireFailure()": "446",
				"revertFailure()": "434"
			}
		},
		"methodIdentifiers": {
			"assertFailure()": "69961c23",
			"requireFailure()": "550e4e54",
			"revertFailure()": "5cd7142d"
		}
	},
	"abi": [
		{
			"inputs": [],
			"name": "assertFailure",
			"outputs": [],
			"stateMutability": "pure",
			"type": "function"
		},
		{
			"inputs": [],
			"name": "requireFailure",
			"outputs": [],
			"stateMutability": "pure",
			"type": "function"
		},
		{
			"inputs": [],
			"name": "revertFailure",
			"outputs": [],
			"stateMutability": "pure",
			"type": "function"
		}
	]
}