{
	"data": {
		"bytecode": {
			"linkReferences": {},
			"object": "608060405234801561001057600080fd5b506101cf806100206000396000f3fe608060405234801561001057600080fd5b506004361061002b5760003560e01c8063e21f37ce14610030575b600080fd5b61003861003a565b005b7fcf7f7572b99ae9e787559f70ffd245bad919c0aefc9a4cbb16aa132761a4364d6040516100679061010d565b60405180910390a1610077610079565b565b7fcf7f7572b99ae9e787559f70ffd245bad919c0aefc9a4cbb16aa132761a4364d6040516100a690610179565b60405180910390a1565b600082825260208201905092915050565b7f66726f6d20430000000000000000000000000000000000000000000000000000600082015250565b60006100f76006836100b0565b9150610102826100c1565b602082019050919050565b60006020820190508181036000830152610126816100ea565b9050919050565b7f66726f6d20410000000000000000000000000000000000000000000000000000600082015250565b60006101636006836100b0565b915061016e8261012d565b602082019050919050565b6000602082019050818103600083015261019281610156565b905091905056fea264697066735822122001d45b34f68d1ce03cc3264413003a80b93ac92fd4bda465148e748e7dbe026464736f6c63430008090033",
			"opcodes": "PUSH1 0x80 PUSH1 0x40 MSTORE CALLVALUE DUP1 ISZERO PUSH2 0x10 JUMPI PUSH1 0x0 DUP1 REVERT JUMPDEST POP PUSH2 0x1CF DUP1 PUSH2 0x20 PUSH1 0x0 CODECOPY PUSH1 0x0 RETURN INVALID PUSH1 0x80 PUSH1 0x40 MSTORE CALLVALUE DUP1 ISZERO PUSH2 0x10 JUMPI PUSH1 0x0 DUP1 REVERT JUMPDEST POP PUSH1 0x4 CALLDATASIZE LT PUSH2 0x2B JUMPI PUSH1 0x0 CALLDATALOAD PUSH1 0xE0 SHR DUP1 PUSH4 0xE21F37CE EQ PUSH2 0x30 JUMPI JUMPDEST PUSH1 0x0 DUP1 REVERT JUMPDEST PUSH2 0x38 PUSH2 0x3A JUMP JUMPDEST STOP JUMPDEST PUSH32 0xCF7F7572B99AE9E787559F70FFD245BAD919C0AEFC9A4CBB16AA132761A4364D PUSH1 0x40 MLOAD PUSH2 0x67 SWAP1 PUSH2 0x10D JUMP JUMPDEST PUSH1 0x40 MLOAD DUP1 SWAP2 SUB SWAP1 LOG1 PUSH2 0x77 PUSH2 0x79 JUMP JUMPDEST JUMP JUMPDEST PUSH32 0xCF7F7572B99AE9E787559F70FFD245BAD919C0AEFC9A4CBB16AA132761A4364D PUSH1 0x40 MLOAD PUSH2 0xA6 SWAP1 PUSH2 0x179 JUMP JUMPDEST PUSH1 0x40 MLOAD DUP1 SWAP2 SUB SWAP1 LOG1 JUMP JUMPDEST PUSH1 0x0 DUP3 DUP3 MSTORE PUSH1 0x20 DUP3 ADD SWAP1 POP SWAP3 SWAP2 POP POP JUMP JUMPDEST PUSH32 0x66726F6D20430000000000000000000000000000000000000000000000000000 PUSH1 0x0 DUP3 ADD MSTORE POP JUMP JUMPDEST PUSH1 0x0 PUSH2 0xF7 PUSH1 0x6 DUP4 PUSH2 0xB0 JUMP JUMPDEST SWAP2 POP PUSH2 0x102 DUP3 PUSH2 0xC1 JUMP JUMPDEST PUSH1 0x20 DUP3 ADD SWAP1 POP SWAP2 SWAP1 POP JUMP JUMPDEST PUSH1 0x0 PUSH1 0x20 DUP3 ADD SWAP1 POP DUP2 DUP2 SUB PUSH1 0x0 DUP4 ADD MSTORE PUSH2 0x126 DUP2 PUSH2 0xEA JUMP JUMPDEST SWAP1 POP SWAP2 SWAP1 POP JUMP JUMPDEST PUSH32 0x66726F6D20410000000000000000000000000000000000000000000000000000 PUSH1 0x0 DUP3 ADD MSTORE POP JUMP JUMPDEST PUSH1 0x0 PUSH2 0x163 PUSH1 0x6 DUP4 PUSH2 0xB0 JUMP JUMPDEST SWAP2 POP PUSH2 0x16E DUP3 PUSH2 0x12D JUMP JUMPDEST PUSH1 0x20 DUP3 ADD SWAP1 POP SWAP2 SWAP1 POP JUMP JUMPDEST PUSH1 0x0 PUSH1 0x20 DUP3 ADD SWAP1 POP DUP2 DUP2 SUB PUSH1 0x0 DUP4 ADD MSTORE PUSH2 0x192 DUP2 PUSH2 0x156 JUMP JUMPDEST SWAP1 POP SWAP2 SWAP1 POP JUMP INVALID LOG2 PUSH5 0x6970667358 0x22 SLT KECCAK256 ADD 0xD4 JUMPDEST CALLVALUE 0xF6 DUP14 SHR 0xE0 EXTCODECOPY 0xC3 0x26 DIFFICULTY SGT STOP GASPRICE DUP1 0xB9 GASPRICE 0xC9 0x2F 0xD4 0xBD LOG4 PUSH6 0x148E748E7DBE MUL PUSH5 0x64736F6C63 NUMBER STOP ADDMOD MULMOD STOP CALLER "
		},
		"gasEstimates": {
			"creation": {
				"codeDepositCost": "92600",
				"executionCost": "141",
				"totalCost": "92741"
			},
			"external": {
				"message()": "infinite"
			}
		},
		"methodIdentifiers": {
			"message()": "e21f37ce"
		}
	},
	"abi": [
		{
			"anonymous": false,
			"inputs": [
				{
					"indexed": false,
					"internalType": "string",
					"name": "_myString",
					"type": "string"
				}
			],
			"name": "LetterEventA",
			"type": "event"
		},
		{
			"anonymous": false,
			"inputs": [
				{
					"indexed": false,
					"internalType": "string",
					"name": "_myString",
					"type": "string"
				}
			],
			"name": "LetterEventB",
			"type": "event"
		},
		{
			"inputs": [],
			"name": "message",
			"outputs": [],
			"stateMutability": "nonpayable",
			"type": "function"
		}
	]
}