{
  "data": {
    "bytecode": {
      "linkReferences": {},
      "object": "608060405234801561001057600080fd5b50610117806100206000396000f3fe6080604052348015600f57600080fd5b506004361060285760003560e01c8063e21f37ce14602d575b600080fd5b60336035565b005b7ff50490e3f3927ef8791444f20ca252b0858ae1452ec55c7e14d769717fab513960405160609060c3565b60405180910390a1565b600082825260208201905092915050565b7f66726f6d20420000000000000000000000000000000000000000000000000000600082015250565b600060af600683606a565b915060b882607b565b602082019050919050565b6000602082019050818103600083015260da8160a4565b905091905056fea2646970667358221220075e38a24c3d2434e727105505949da66850ef47c5797459c6817ed37693d11b64736f6c63430008090033",
      "opcodes": "PUSH1 0x80 PUSH1 0x40 MSTORE CALLVALUE DUP1 ISZERO PUSH2 0x10 JUMPI PUSH1 0x0 DUP1 REVERT JUMPDEST POP PUSH2 0x117 DUP1 PUSH2 0x20 PUSH1 0x0 CODECOPY PUSH1 0x0 RETURN INVALID PUSH1 0x80 PUSH1 0x40 MSTORE CALLVALUE DUP1 ISZERO PUSH1 0xF JUMPI PUSH1 0x0 DUP1 REVERT JUMPDEST POP PUSH1 0x4 CALLDATASIZE LT PUSH1 0x28 JUMPI PUSH1 0x0 CALLDATALOAD PUSH1 0xE0 SHR DUP1 PUSH4 0xE21F37CE EQ PUSH1 0x2D JUMPI JUMPDEST PUSH1 0x0 DUP1 REVERT JUMPDEST PUSH1 0x33 PUSH1 0x35 JUMP JUMPDEST STOP JUMPDEST PUSH32 0xF50490E3F3927EF8791444F20CA252B0858AE1452EC55C7E14D769717FAB5139 PUSH1 0x40 MLOAD PUSH1 0x60 SWAP1 PUSH1 0xC3 JUMP JUMPDEST PUSH1 0x40 MLOAD DUP1 SWAP2 SUB SWAP1 LOG1 JUMP JUMPDEST PUSH1 0x0 DUP3 DUP3 MSTORE PUSH1 0x20 DUP3 ADD SWAP1 POP SWAP3 SWAP2 POP POP JUMP JUMPDEST PUSH32 0x66726F6D20420000000000000000000000000000000000000000000000000000 PUSH1 0x0 DUP3 ADD MSTORE POP JUMP JUMPDEST PUSH1 0x0 PUSH1 0xAF PUSH1 0x6 DUP4 PUSH1 0x6A JUMP JUMPDEST SWAP2 POP PUSH1 0xB8 DUP3 PUSH1 0x7B JUMP JUMPDEST PUSH1 0x20 DUP3 ADD SWAP1 POP SWAP2 SWAP1 POP JUMP JUMPDEST PUSH1 0x0 PUSH1 0x20 DUP3 ADD SWAP1 POP DUP2 DUP2 SUB PUSH1 0x0 DUP4 ADD MSTORE PUSH1 0xDA DUP2 PUSH1 0xA4 JUMP JUMPDEST SWAP1 POP SWAP2 SWAP1 POP JUMP INVALID LOG2 PUSH5 0x6970667358 0x22 SLT KECCAK256 SMOD 0x5E CODESIZE LOG2 0x4C RETURNDATASIZE 0x24 CALLVALUE 0xE7 0x27 LT SSTORE SDIV SWAP5 SWAP14 0xA6 PUSH9 0x50EF47C5797459C681 PUSH31 0xD37693D11B64736F6C63430008090033000000000000000000000000000000 "
    },
    "gasEstimates": {
      "creation": {
        "codeDepositCost": "55800",
        "executionCost": "105",
        "totalCost": "55905"
      },
      "external": {
        "message()": "1924"
      }
    },
    "methodIdentifiers": {
      "message()": "e21f37ce"
    }
  },
  "abi": [
    {
      "anonymous": false,
      "inputs": [
        {
          "indexed": false,
          "internalType": "string",
          "name": "_myString",
          "type": "string"
        }
      ],
      "name": "LetterEventB",
      "type": "event"
    },
    {
      "inputs": [],
      "name": "message",
      "outputs": [],
      "stateMutability": "nonpayable",
      "type": "function"
    }
  ]
}