{
  "data": {
    "bytecode": {
      "linkReferences": {},
      "object": "6080604052607b60005560ea60015534801561001a57600080fd5b5060e4806100296000396000f3fe6080604052348015600f57600080fd5b506004361060325760003560e01c80631285e4f61460375780631b03a878146051575b600080fd5b603d606b565b604051604891906095565b60405180910390f35b60576074565b604051606291906095565b60405180910390f35b60008054905090565b6000600154905090565b6000819050919050565b608f81607e565b82525050565b600060208201905060a860008301846088565b9291505056fea2646970667358221220b95ae2a5665f12b04508d71844341203f890063858ebcaa688105c275eb6476b64736f6c63430008090033",
      "opcodes": "PUSH1 0x80 PUSH1 0x40 MSTORE PUSH1 0x7B PUSH1 0x0 SSTORE PUSH1 0xEA PUSH1 0x1 SSTORE CALLVALUE DUP1 ISZERO PUSH2 0x1A JUMPI PUSH1 0x0 DUP1 REVERT JUMPDEST POP PUSH1 0xE4 DUP1 PUSH2 0x29 PUSH1 0x0 CODECOPY PUSH1 0x0 RETURN INVALID PUSH1 0x80 PUSH1 0x40 MSTORE CALLVALUE DUP1 ISZERO PUSH1 0xF JUMPI PUSH1 0x0 DUP1 REVERT JUMPDEST POP PUSH1 0x4 CALLDATASIZE LT PUSH1 0x32 JUMPI PUSH1 0x0 CALLDATALOAD PUSH1 0xE0 SHR DUP1 PUSH4 0x1285E4F6 EQ PUSH1 0x37 JUMPI DUP1 PUSH4 0x1B03A878 EQ PUSH1 0x51 JUMPI JUMPDEST PUSH1 0x0 DUP1 REVERT JUMPDEST PUSH1 0x3D PUSH1 0x6B JUMP JUMPDEST PUSH1 0x40 MLOAD PUSH1 0x48 SWAP2 SWAP1 PUSH1 0x95 JUMP JUMPDEST PUSH1 0x40 MLOAD DUP1 SWAP2 SUB SWAP1 RETURN JUMPDEST PUSH1 0x57 PUSH1 0x74 JUMP JUMPDEST PUSH1 0x40 MLOAD PUSH1 0x62 SWAP2 SWAP1 PUSH1 0x95 JUMP JUMPDEST PUSH1 0x40 MLOAD DUP1 SWAP2 SUB SWAP1 RETURN JUMPDEST PUSH1 0x0 DUP1 SLOAD SWAP1 POP SWAP1 JUMP JUMPDEST PUSH1 0x0 PUSH1 0x1 SLOAD SWAP1 POP SWAP1 JUMP JUMPDEST PUSH1 0x0 DUP2 SWAP1 POP SWAP2 SWAP1 POP JUMP JUMPDEST PUSH1 0x8F DUP2 PUSH1 0x7E JUMP JUMPDEST DUP3 MSTORE POP POP JUMP JUMPDEST PUSH1 0x0 PUSH1 0x20 DUP3 ADD SWAP1 POP PUSH1 0xA8 PUSH1 0x0 DUP4 ADD DUP5 PUSH1 0x88 JUMP JUMPDEST SWAP3 SWAP2 POP POP JUMP INVALID LOG2 PUSH5 0x6970667358 0x22 SLT KECCAK256 0xB9 GAS 0xE2 0xA5 PUSH7 0x5F12B04508D718 DIFFICULTY CALLVALUE SLT SUB 0xF8 SWAP1 MOD CODESIZE PC 0xEB 0xCA 0xA6 DUP9 LT 0x5C 0x27 0x5E 0xB6 SELFBALANCE PUSH12 0x64736F6C6343000809003300 "
    },
    "gasEstimates": {
      "creation": {
        "codeDepositCost": "45600",
        "executionCost": "44311",
        "totalCost": "89911"
      },
      "external": {
        "getXfromA()": "2415",
        "getXfromB()": "2437"
      }
    },
    "methodIdentifiers": {
      "getXfromA()": "1285e4f6",
      "getXfromB()": "1b03a878"
    }
  },
  "abi": [
    {
      "inputs": [],
      "name": "getXfromA",
      "outputs": [
        {
          "internalType": "uint256",
          "name": "",
          "type": "uint256"
        }
      ],
      "stateMutability": "view",
      "type": "function"
    },
    {
      "inputs": [],
      "name": "getXfromB",
      "outputs": [
        {
          "internalType": "uint256",
          "name": "",
          "type": "uint256"
        }
      ],
      "stateMutability": "view",
      "type": "function"
    }
  ]
}