{
  "contractName": "Item",
  "abi": [
    {
      "inputs": [
        {
          "internalType": "contract ItemManager",
          "name": "_itemManager",
          "type": "address"
        },
        {
          "internalType": "uint256",
          "name": "_price",
          "type": "uint256"
        },
        {
          "internalType": "uint256",
          "name": "_index",
          "type": "uint256"
        }
      ],
      "stateMutability": "nonpayable",
      "type": "constructor"
    },
    {
      "stateMutability": "nonpayable",
      "type": "fallback"
    },
    {
      "inputs": [],
      "name": "index",
      "outputs": [
        {
          "internalType": "uint256",
          "name": "",
          "type": "uint256"
        }
      ],
      "stateMutability": "view",
      "type": "function"
    },
    {
      "inputs": [],
      "name": "paid",
      "outputs": [
        {
          "internalType": "uint256",
          "name": "",
          "type": "uint256"
        }
      ],
      "stateMutability": "view",
      "type": "function"
    },
    {
      "inputs": [],
      "name": "price",
      "outputs": [
        {
          "internalType": "uint256",
          "name": "",
          "type": "uint256"
        }
      ],
      "stateMutability": "view",
      "type": "function"
    },
    {
      "stateMutability": "payable",
      "type": "receive"
    }
  ],
  "bytecode": "0x608060405234801561001057600080fd5b5060405161077438038061077483398181016040528101906100329190610134565b816000819055508060028190555082600360006101000a81548173ffffffffffffffffffffffffffffffffffffffff021916908373ffffffffffffffffffffffffffffffffffffffff160217905550505050610187565b600080fd5b600073ffffffffffffffffffffffffffffffffffffffff82169050919050565b60006100b98261008e565b9050919050565b60006100cb826100ae565b9050919050565b6100db816100c0565b81146100e657600080fd5b50565b6000815190506100f8816100d2565b92915050565b6000819050919050565b610111816100fe565b811461011c57600080fd5b50565b60008151905061012e81610108565b92915050565b60008060006060848603121561014d5761014c610089565b5b600061015b868287016100e9565b935050602061016c8682870161011f565b925050604061017d8682870161011f565b9150509250925092565b6105de806101966000396000f3fe6080604052600436106100385760003560e01c8063295b4e17146102505780632986c0e51461027b578063a035b1fe146102a657610241565b36610241576000543414610081576040517f08c379a000000000000000000000000000000000000000000000000000000000815260040161007890610366565b60405180910390fd5b6000600154146100c6576040517f08c379a00000000000000000000000000000000000000000000000000000000081526004016100bd906103d2565b60405180910390fd5b34600160008282546100d8919061042b565b925050819055506000600360009054906101000a900473ffffffffffffffffffffffffffffffffffffffff1673ffffffffffffffffffffffffffffffffffffffff163460025460405160240161012e9190610490565b6040516020818303038152906040527f85c808d8000000000000000000000000000000000000000000000000000000007bffffffffffffffffffffffffffffffffffffffffffffffffffffffff19166020820180517bffffffffffffffffffffffffffffffffffffffffffffffffffffffff83818316178352505050506040516101b89190610525565b60006040518083038185875af1925050503d80600081146101f5576040519150601f19603f3d011682016040523d82523d6000602084013e6101fa565b606091505b505090508061023e576040517f08c379a000000000000000000000000000000000000000000000000000000000815260040161023590610588565b60405180910390fd5b50005b34801561024d57600080fd5b50005b34801561025c57600080fd5b506102656102d1565b6040516102729190610490565b60405180910390f35b34801561028757600080fd5b506102906102d7565b60405161029d9190610490565b60405180910390f35b3480156102b257600080fd5b506102bb6102dd565b6040516102c89190610490565b60405180910390f35b60015481565b60025481565b60005481565b600082825260208201905092915050565b7f53656e742066756e647320646f206e6f74206d61746368206974656d2070726960008201527f6365000000000000000000000000000000000000000000000000000000000000602082015250565b60006103506022836102e3565b915061035b826102f4565b604082019050919050565b6000602082019050818103600083015261037f81610343565b9050919050565b7f4974656d20697320616c72656164792070616964210000000000000000000000600082015250565b60006103bc6015836102e3565b91506103c782610386565b602082019050919050565b600060208201905081810360008301526103eb816103af565b9050919050565b6000819050919050565b7f4e487b7100000000000000000000000000000000000000000000000000000000600052601160045260246000fd5b6000610436826103f2565b9150610441836103f2565b9250827fffffffffffffffffffffffffffffffffffffffffffffffffffffffffffffffff03821115610476576104756103fc565b5b828201905092915050565b61048a816103f2565b82525050565b60006020820190506104a56000830184610481565b92915050565b600081519050919050565b600081905092915050565b60005b838110156104df5780820151818401526020810190506104c4565b838111156104ee576000848401525b50505050565b60006104ff826104ab565b61050981856104b6565b93506105198185602086016104c1565b80840191505092915050565b600061053182846104f4565b915081905092915050565b7f44656c697665727920646964206e6f7420776f726b0000000000000000000000600082015250565b60006105726015836102e3565b915061057d8261053c565b602082019050919050565b600060208201905081810360008301526105a181610565565b905091905056fea264697066735822122059d77395fc89d7a30c2b75fe70685ea40b83c498301383aa4746e084b87686ab64736f6c63430008090033",
  "immutableReferences": {},
  "source": "// SPDX-License-Identifier: MIT\n\npragma solidity ^0.8.7;\n\nimport \"./ItemManager.sol\";\n\ncontract Item {\n    uint public price;\n    uint public paid;\n    uint public index;\n\n    // Can create, pay and deliver the item\n    ItemManager itemManager;\n\n    constructor(ItemManager _itemManager, uint _price, uint _index) {\n        price = _price;\n        index = _index;\n        itemManager = _itemManager;\n    }\n\n    // Receive payment of an item trough fallback payable function\n    receive() external payable {\n        require(msg.value == price, \"Sent funds do not match item price\");\n        require(paid == 0, \"Item is already paid!\");\n        paid += msg.value;\n        // Await until the call of the itemManager went through\n        (bool success, ) = address(itemManager).call{value:msg.value}(abi.encodeWithSignature(\"payItem(uint256)\", index));\n        require(success, \"Delivery did not work\");\n    }\n\n    fallback () external {\n        \n    }\n\n}",
  "sourcePath": "/Users/fhildebrandt/Downloads/Lukso/Bootcamp/SupplyChain/Truffle/contracts/Item.sol",
  "compiler": {
    "name": "solc",
    "version": "0.8.9+commit.e5eed63a.Emscripten.clang"
  },
  "schemaVersion": "3.4.3",
  "updatedAt": "2021-11-02T16:03:01.119Z",
  "devdoc": {
    "kind": "dev",
    "methods": {},
    "version": 1
  },
  "userdoc": {
    "kind": "user",
    "methods": {},
    "version": 1
  }
}