{
  "contractName": "ItemManager",
  "abi": [
    {
      "anonymous": false,
      "inputs": [
        {
          "indexed": false,
          "internalType": "uint256",
          "name": "_index",
          "type": "uint256"
        },
        {
          "indexed": false,
          "internalType": "uint256",
          "name": "_status",
          "type": "uint256"
        },
        {
          "indexed": false,
          "internalType": "address",
          "name": "_address",
          "type": "address"
        }
      ],
      "name": "ItemStatusChanged",
      "type": "event"
    },
    {
      "inputs": [],
      "name": "_owner",
      "outputs": [
        {
          "internalType": "address",
          "name": "",
          "type": "address"
        }
      ],
      "stateMutability": "view",
      "type": "function",
      "constant": true
    },
    {
      "inputs": [],
      "name": "isOwner",
      "outputs": [
        {
          "internalType": "bool",
          "name": "",
          "type": "bool"
        }
      ],
      "stateMutability": "view",
      "type": "function",
      "constant": true
    },
    {
      "inputs": [
        {
          "internalType": "uint256",
          "name": "",
          "type": "uint256"
        }
      ],
      "name": "items",
      "outputs": [
        {
          "internalType": "contract Item",
          "name": "item",
          "type": "address"
        },
        {
          "internalType": "enum ItemManager.ItemStatus",
          "name": "status",
          "type": "uint8"
        },
        {
          "internalType": "string",
          "name": "identifier",
          "type": "string"
        }
      ],
      "stateMutability": "view",
      "type": "function",
      "constant": true
    },
    {
      "inputs": [
        {
          "internalType": "string",
          "name": "_identifier",
          "type": "string"
        },
        {
          "internalType": "uint256",
          "name": "_price",
          "type": "uint256"
        }
      ],
      "name": "createItem",
      "outputs": [],
      "stateMutability": "nonpayable",
      "type": "function"
    },
    {
      "inputs": [
        {
          "internalType": "uint256",
          "name": "_index",
          "type": "uint256"
        }
      ],
      "name": "payItem",
      "outputs": [],
      "stateMutability": "payable",
      "type": "function",
      "payable": true
    },
    {
      "inputs": [
        {
          "internalType": "uint256",
          "name": "_index",
          "type": "uint256"
        }
      ],
      "name": "deliverItem",
      "outputs": [],
      "stateMutability": "nonpayable",
      "type": "function"
    }
  ],
  "bytecode": "0x608060405234801561001057600080fd5b50336000806101000a81548173ffffffffffffffffffffffffffffffffffffffff021916908373ffffffffffffffffffffffffffffffffffffffff160217905550611ae8806100606000396000f3fe6080604052600436106200005c5760003560e01c806385c808d814620000615780638c55174214620000815780638f32d59b14620000af578063a0a5af5f14620000df578063b2bdfa7b146200010d578063bfb231d2146200013d575b600080fd5b6200007f600480360381019062000079919062000a71565b62000183565b005b3480156200008e57600080fd5b50620000ad6004803603810190620000a7919062000c05565b62000442565b005b348015620000bc57600080fd5b50620000c762000633565b604051620000d6919062000c88565b60405180910390f35b348015620000ec57600080fd5b506200010b600480360381019062000105919062000a71565b6200068a565b005b3480156200011a57600080fd5b506200012562000859565b60405162000134919062000cea565b60405180910390f35b3480156200014a57600080fd5b5062000169600480360381019062000163919062000a71565b6200087d565b6040516200017a9392919062000e85565b60405180910390f35b60006001600083815260200190815260200160002060000160009054906101000a900473ffffffffffffffffffffffffffffffffffffffff1690503373ffffffffffffffffffffffffffffffffffffffff168173ffffffffffffffffffffffffffffffffffffffff16146200022f576040517f08c379a0000000000000000000000000000000000000000000000000000000008152600401620002269062000f3f565b60405180910390fd5b348173ffffffffffffffffffffffffffffffffffffffff1663a035b1fe6040518163ffffffff1660e01b815260040160206040518083038186803b1580156200027757600080fd5b505afa1580156200028c573d6000803e3d6000fd5b505050506040513d601f19601f82011682018060405250810190620002b2919062000f78565b14620002f5576040517f08c379a0000000000000000000000000000000000000000000000000000000008152600401620002ec9062000ffa565b60405180910390fd5b600060028111156200030c576200030b62000d72565b5b6001600084815260200190815260200160002060000160149054906101000a900460ff16600281111562000345576200034462000d72565b5b1462000388576040517f08c379a00000000000000000000000000000000000000000000000000000000081526004016200037f9062001092565b60405180910390fd5b600180600084815260200190815260200160002060000160146101000a81548160ff02191690836002811115620003c457620003c362000d72565b5b02179055507fd91cd357560a0be4dfa63a75e69a624b64e914d839905a8e04e114d6896765b1826001600085815260200190815260200160002060000160149054906101000a900460ff16600281111562000424576200042362000d72565b5b836040516200043693929190620010c5565b60405180910390a15050565b6200044c62000633565b6200048e576040517f08c379a0000000000000000000000000000000000000000000000000000000008152600401620004859062001152565b60405180910390fd5b60003082600254604051620004a39062000964565b620004b193929190620011ad565b604051809103906000f080158015620004ce573d6000803e3d6000fd5b5090508060016000600254815260200190815260200160002060000160006101000a81548173ffffffffffffffffffffffffffffffffffffffff021916908373ffffffffffffffffffffffffffffffffffffffff160217905550600060016000600254815260200190815260200160002060000160146101000a81548160ff0219169083600281111562000567576200056662000d72565b5b02179055508260016000600254815260200190815260200160002060010190805190602001906200059a92919062000972565b507fd91cd357560a0be4dfa63a75e69a624b64e914d839905a8e04e114d6896765b160025460016000600254815260200190815260200160002060000160149054906101000a900460ff166002811115620005fa57620005f962000d72565b5b836040516200060c93929190620010c5565b60405180910390a160026000815480929190620006299062001219565b9190505550505050565b60008060009054906101000a900473ffffffffffffffffffffffffffffffffffffffff1673ffffffffffffffffffffffffffffffffffffffff163373ffffffffffffffffffffffffffffffffffffffff1614905090565b6200069462000633565b620006d6576040517f08c379a0000000000000000000000000000000000000000000000000000000008152600401620006cd9062001152565b60405180910390fd5b60016002811115620006ed57620006ec62000d72565b5b6001600083815260200190815260200160002060000160149054906101000a900460ff16600281111562000726576200072562000d72565b5b1462000769576040517f08c379a00000000000000000000000000000000000000000000000000000000081526004016200076090620012b7565b60405180910390fd5b60026001600083815260200190815260200160002060000160146101000a81548160ff02191690836002811115620007a657620007a562000d72565b5b02179055507fd91cd357560a0be4dfa63a75e69a624b64e914d839905a8e04e114d6896765b1816001600084815260200190815260200160002060000160149054906101000a900460ff16600281111562000806576200080562000d72565b5b6001600085815260200190815260200160002060000160009054906101000a900473ffffffffffffffffffffffffffffffffffffffff166040516200084e93929190620010c5565b60405180910390a150565b60008054906101000a900473ffffffffffffffffffffffffffffffffffffffff1681565b60016020528060005260406000206000915090508060000160009054906101000a900473ffffffffffffffffffffffffffffffffffffffff16908060000160149054906101000a900460ff1690806001018054620008db9062001308565b80601f0160208091040260200160405190810160405280929190818152602001828054620009099062001308565b80156200095a5780601f106200092e576101008083540402835291602001916200095a565b820191906000526020600020905b8154815290600101906020018083116200093c57829003601f168201915b5050505050905083565b610774806200133f83390190565b828054620009809062001308565b90600052602060002090601f016020900481019282620009a45760008555620009f0565b82601f10620009bf57805160ff1916838001178555620009f0565b82800160010185558215620009f0579182015b82811115620009ef578251825591602001919060010190620009d2565b5b509050620009ff919062000a03565b5090565b5b8082111562000a1e57600081600090555060010162000a04565b5090565b6000604051905090565b600080fd5b600080fd5b6000819050919050565b62000a4b8162000a36565b811462000a5757600080fd5b50565b60008135905062000a6b8162000a40565b92915050565b60006020828403121562000a8a5762000a8962000a2c565b5b600062000a9a8482850162000a5a565b91505092915050565b600080fd5b600080fd5b6000601f19601f8301169050919050565b7f4e487b7100000000000000000000000000000000000000000000000000000000600052604160045260246000fd5b62000af88262000aad565b810181811067ffffffffffffffff8211171562000b1a5762000b1962000abe565b5b80604052505050565b600062000b2f62000a22565b905062000b3d828262000aed565b919050565b600067ffffffffffffffff82111562000b605762000b5f62000abe565b5b62000b6b8262000aad565b9050602081019050919050565b82818337600083830152505050565b600062000b9e62000b988462000b42565b62000b23565b90508281526020810184848401111562000bbd5762000bbc62000aa8565b5b62000bca84828562000b78565b509392505050565b600082601f83011262000bea5762000be962000aa3565b5b813562000bfc84826020860162000b87565b91505092915050565b6000806040838503121562000c1f5762000c1e62000a2c565b5b600083013567ffffffffffffffff81111562000c405762000c3f62000a31565b5b62000c4e8582860162000bd2565b925050602062000c618582860162000a5a565b9150509250929050565b60008115159050919050565b62000c828162000c6b565b82525050565b600060208201905062000c9f600083018462000c77565b92915050565b600073ffffffffffffffffffffffffffffffffffffffff82169050919050565b600062000cd28262000ca5565b9050919050565b62000ce48162000cc5565b82525050565b600060208201905062000d01600083018462000cd9565b92915050565b6000819050919050565b600062000d3262000d2c62000d268462000ca5565b62000d07565b62000ca5565b9050919050565b600062000d468262000d11565b9050919050565b600062000d5a8262000d39565b9050919050565b62000d6c8162000d4d565b82525050565b7f4e487b7100000000000000000000000000000000000000000000000000000000600052602160045260246000fd5b6003811062000db55762000db462000d72565b5b50565b600081905062000dc88262000da1565b919050565b600062000dda8262000db8565b9050919050565b62000dec8162000dcd565b82525050565b600081519050919050565b600082825260208201905092915050565b60005b8381101562000e2e57808201518184015260208101905062000e11565b8381111562000e3e576000848401525b50505050565b600062000e518262000df2565b62000e5d818562000dfd565b935062000e6f81856020860162000e0e565b62000e7a8162000aad565b840191505092915050565b600060608201905062000e9c600083018662000d61565b62000eab602083018562000de1565b818103604083015262000ebf818462000e44565b9050949350505050565b7f4f6e6c79206974656d732061726520616c6c6f77656420746f2075706461746560008201527f207468656d73656c766573000000000000000000000000000000000000000000602082015250565b600062000f27602b8362000dfd565b915062000f348262000ec9565b604082019050919050565b6000602082019050818103600083015262000f5a8162000f18565b9050919050565b60008151905062000f728162000a40565b92915050565b60006020828403121562000f915762000f9062000a2c565b5b600062000fa18482850162000f61565b91505092915050565b7f4e6f742066756c6c792070616964207965740000000000000000000000000000600082015250565b600062000fe260128362000dfd565b915062000fef8262000faa565b602082019050919050565b60006020820190508181036000830152620010158162000fd3565b9050919050565b7f4974656d206973206e6f742063726561746564206f7220616c7265616479207060008201527f6169640000000000000000000000000000000000000000000000000000000000602082015250565b60006200107a60238362000dfd565b915062001087826200101c565b604082019050919050565b60006020820190508181036000830152620010ad816200106b565b9050919050565b620010bf8162000a36565b82525050565b6000606082019050620010dc6000830186620010b4565b620010eb6020830185620010b4565b620010fa604083018462000cd9565b949350505050565b7f596f7520617265206e6f7420746865206f776e65720000000000000000000000600082015250565b60006200113a60158362000dfd565b9150620011478262001102565b602082019050919050565b600060208201905081810360008301526200116d816200112b565b9050919050565b6000620011818262000d11565b9050919050565b6000620011958262001174565b9050919050565b620011a78162001188565b82525050565b6000606082019050620011c460008301866200119c565b620011d36020830185620010b4565b620011e26040830184620010b4565b949350505050565b7f4e487b7100000000000000000000000000000000000000000000000000000000600052601160045260246000fd5b6000620012268262000a36565b91507fffffffffffffffffffffffffffffffffffffffffffffffffffffffffffffffff8214156200125c576200125b620011ea565b5b600182019050919050565b7f4974656d206973206e6f742063726561746564206f7220706169640000000000600082015250565b60006200129f601b8362000dfd565b9150620012ac8262001267565b602082019050919050565b60006020820190508181036000830152620012d28162001290565b9050919050565b7f4e487b7100000000000000000000000000000000000000000000000000000000600052602260045260246000fd5b600060028204905060018216806200132157607f821691505b60208210811415620013385762001337620012d9565b5b5091905056fe608060405234801561001057600080fd5b5060405161077438038061077483398181016040528101906100329190610134565b816000819055508060028190555082600360006101000a81548173ffffffffffffffffffffffffffffffffffffffff021916908373ffffffffffffffffffffffffffffffffffffffff160217905550505050610187565b600080fd5b600073ffffffffffffffffffffffffffffffffffffffff82169050919050565b60006100b98261008e565b9050919050565b60006100cb826100ae565b9050919050565b6100db816100c0565b81146100e657600080fd5b50565b6000815190506100f8816100d2565b92915050565b6000819050919050565b610111816100fe565b811461011c57600080fd5b50565b60008151905061012e81610108565b92915050565b60008060006060848603121561014d5761014c610089565b5b600061015b868287016100e9565b935050602061016c8682870161011f565b925050604061017d8682870161011f565b9150509250925092565b6105de806101966000396000f3fe6080604052600436106100385760003560e01c8063295b4e17146102505780632986c0e51461027b578063a035b1fe146102a657610241565b36610241576000543414610081576040517f08c379a000000000000000000000000000000000000000000000000000000000815260040161007890610366565b60405180910390fd5b6000600154146100c6576040517f08c379a00000000000000000000000000000000000000000000000000000000081526004016100bd906103d2565b60405180910390fd5b34600160008282546100d8919061042b565b925050819055506000600360009054906101000a900473ffffffffffffffffffffffffffffffffffffffff1673ffffffffffffffffffffffffffffffffffffffff163460025460405160240161012e9190610490565b6040516020818303038152906040527f85c808d8000000000000000000000000000000000000000000000000000000007bffffffffffffffffffffffffffffffffffffffffffffffffffffffff19166020820180517bffffffffffffffffffffffffffffffffffffffffffffffffffffffff83818316178352505050506040516101b89190610525565b60006040518083038185875af1925050503d80600081146101f5576040519150601f19603f3d011682016040523d82523d6000602084013e6101fa565b606091505b505090508061023e576040517f08c379a000000000000000000000000000000000000000000000000000000000815260040161023590610588565b60405180910390fd5b50005b34801561024d57600080fd5b50005b34801561025c57600080fd5b506102656102d1565b6040516102729190610490565b60405180910390f35b34801561028757600080fd5b506102906102d7565b60405161029d9190610490565b60405180910390f35b3480156102b257600080fd5b506102bb6102dd565b6040516102c89190610490565b60405180910390f35b60015481565b60025481565b60005481565b600082825260208201905092915050565b7f53656e742066756e647320646f206e6f74206d61746368206974656d2070726960008201527f6365000000000000000000000000000000000000000000000000000000000000602082015250565b60006103506022836102e3565b915061035b826102f4565b604082019050919050565b6000602082019050818103600083015261037f81610343565b9050919050565b7f4974656d20697320616c72656164792070616964210000000000000000000000600082015250565b60006103bc6015836102e3565b91506103c782610386565b602082019050919050565b600060208201905081810360008301526103eb816103af565b9050919050565b6000819050919050565b7f4e487b7100000000000000000000000000000000000000000000000000000000600052601160045260246000fd5b6000610436826103f2565b9150610441836103f2565b9250827fffffffffffffffffffffffffffffffffffffffffffffffffffffffffffffffff03821115610476576104756103fc565b5b828201905092915050565b61048a816103f2565b82525050565b60006020820190506104a56000830184610481565b92915050565b600081519050919050565b600081905092915050565b60005b838110156104df5780820151818401526020810190506104c4565b838111156104ee576000848401525b50505050565b60006104ff826104ab565b61050981856104b6565b93506105198185602086016104c1565b80840191505092915050565b600061053182846104f4565b915081905092915050565b7f44656c697665727920646964206e6f7420776f726b0000000000000000000000600082015250565b60006105726015836102e3565b915061057d8261053c565b602082019050919050565b600060208201905081810360008301526105a181610565565b905091905056fea264697066735822122059d77395fc89d7a30c2b75fe70685ea40b83c498301383aa4746e084b87686ab64736f6c63430008090033a26469706673582212207fc85d7693850c98174403042e2af84aa57f1abca44093fda881e35368e1fee564736f6c63430008090033",
  "immutableReferences": {},
  "source": "// SPDX-License-Identifier: MIT\n\npragma solidity ^0.8.7;\n\nimport \"./Item.sol\";\nimport \"./Ownable.sol\";\n\ncontract ItemManager is Ownable {\n\n    enum ItemStatus{Created, Paid, Delivered}\n\n    struct ItemStruct {\n        Item item;\n        ItemManager.ItemStatus status;\n        string identifier;\n    }\n    mapping(uint => ItemStruct) public items;\n    \n    uint index;\n\n\n    event ItemStatusChanged(uint _index, uint _status, address _address);\n\n    function createItem(string memory _identifier, uint _price) public onlyOwner {\n        Item createdItem = new Item(this, _price, index);        \n        items[index].item = createdItem;\n        items[index].status = ItemStatus.Created;\n        items[index].identifier = _identifier;\n        emit ItemStatusChanged(index, uint(items[index].status), address(createdItem));\n        index++;\n    }\n\n    function payItem(uint _index) public payable {\n        Item paidItem= items[_index].item;\n        \n        // Payable function has to be public but can only be called internally\n        require(address(paidItem) == msg.sender, \"Only items are allowed to update themselves\");\n        require(paidItem.price() == msg.value, \"Not fully paid yet\");\n        require(items[_index].status == ItemStatus.Created, \"Item is not created or already paid\");\n        items[_index].status = ItemStatus.Paid;\n        emit ItemStatusChanged(_index, uint(items[_index].status), address(paidItem));\n    }\n\n    function deliverItem(uint _index) public onlyOwner {\n        require(items[_index].status == ItemStatus.Paid, \"Item is not created or paid\");\n        items[_index].status = ItemStatus.Delivered;\n        emit ItemStatusChanged(_index, uint(items[_index].status), address(items[_index].item));\n    }\n}",
  "sourcePath": "/Users/fhildebrandt/Downloads/Lukso/Bootcamp/SupplyChain/Truffle/contracts/ItemManager.sol",
  "compiler": {
    "name": "solc",
    "version": "0.8.9+commit.e5eed63a.Emscripten.clang"
  },
  "schemaVersion": "3.4.3",
  "updatedAt": "2021-11-02T16:37:57.682Z",
  "networkType": "ethereum",
  "devdoc": {
    "kind": "dev",
    "methods": {},
    "version": 1
  },
  "userdoc": {
    "kind": "user",
    "methods": {},
    "version": 1
  }
}