{
  "contractName": "KYCManager",
  "abi": [
    {
      "anonymous": false,
      "inputs": [
        {
          "indexed": true,
          "internalType": "address",
          "name": "previousOwner",
          "type": "address"
        },
        {
          "indexed": true,
          "internalType": "address",
          "name": "newOwner",
          "type": "address"
        }
      ],
      "name": "OwnershipTransferred",
      "type": "event"
    },
    {
      "inputs": [],
      "name": "owner",
      "outputs": [
        {
          "internalType": "address",
          "name": "",
          "type": "address"
        }
      ],
      "stateMutability": "view",
      "type": "function",
      "constant": true
    },
    {
      "inputs": [],
      "name": "renounceOwnership",
      "outputs": [],
      "stateMutability": "nonpayable",
      "type": "function"
    },
    {
      "inputs": [
        {
          "internalType": "address",
          "name": "newOwner",
          "type": "address"
        }
      ],
      "name": "transferOwnership",
      "outputs": [],
      "stateMutability": "nonpayable",
      "type": "function"
    },
    {
      "inputs": [
        {
          "internalType": "address",
          "name": "_addr",
          "type": "address"
        }
      ],
      "name": "setKYCCompleted",
      "outputs": [],
      "stateMutability": "nonpayable",
      "type": "function"
    },
    {
      "inputs": [
        {
          "internalType": "address",
          "name": "_addr",
          "type": "address"
        }
      ],
      "name": "setKYCRevoked",
      "outputs": [],
      "stateMutability": "nonpayable",
      "type": "function"
    },
    {
      "inputs": [
        {
          "internalType": "address",
          "name": "_addr",
          "type": "address"
        }
      ],
      "name": "isKYCCompleted",
      "outputs": [
        {
          "internalType": "bool",
          "name": "",
          "type": "bool"
        }
      ],
      "stateMutability": "view",
      "type": "function",
      "constant": true
    }
  ],
  "bytecode": "0x608060405234801561001057600080fd5b5061002d61002261003260201b60201c565b61003a60201b60201c565b6100fe565b600033905090565b60008060009054906101000a900473ffffffffffffffffffffffffffffffffffffffff169050816000806101000a81548173ffffffffffffffffffffffffffffffffffffffff021916908373ffffffffffffffffffffffffffffffffffffffff1602179055508173ffffffffffffffffffffffffffffffffffffffff168173ffffffffffffffffffffffffffffffffffffffff167f8be0079c531659141344cd1fd0a4f28419497f9722a3daafe3b4186f6b6457e060405160405180910390a35050565b6107c08061010d6000396000f3fe608060405234801561001057600080fd5b50600436106100625760003560e01c80631082dffe14610067578063215b163814610097578063715018a6146100b35780638da5cb5b146100bd578063eeed69d9146100db578063f2fde38b146100f7575b600080fd5b610081600480360381019061007c91906105ee565b610113565b60405161008e9190610636565b60405180910390f35b6100b160048036038101906100ac91906105ee565b610169565b005b6100bb610240565b005b6100c56102c8565b6040516100d29190610660565b60405180910390f35b6100f560048036038101906100f091906105ee565b6102f1565b005b610111600480360381019061010c91906105ee565b6103c7565b005b6000600160008373ffffffffffffffffffffffffffffffffffffffff1673ffffffffffffffffffffffffffffffffffffffff16815260200190815260200160002060009054906101000a900460ff169050919050565b6101716104bf565b73ffffffffffffffffffffffffffffffffffffffff1661018f6102c8565b73ffffffffffffffffffffffffffffffffffffffff16146101e5576040517f08c379a00000000000000000000000000000000000000000000000000000000081526004016101dc906106d8565b60405180910390fd5b6000600160008373ffffffffffffffffffffffffffffffffffffffff1673ffffffffffffffffffffffffffffffffffffffff16815260200190815260200160002060006101000a81548160ff02191690831515021790555050565b6102486104bf565b73ffffffffffffffffffffffffffffffffffffffff166102666102c8565b73ffffffffffffffffffffffffffffffffffffffff16146102bc576040517f08c379a00000000000000000000000000000000000000000000000000000000081526004016102b3906106d8565b60405180910390fd5b6102c660006104c7565b565b60008060009054906101000a900473ffffffffffffffffffffffffffffffffffffffff16905090565b6102f96104bf565b73ffffffffffffffffffffffffffffffffffffffff166103176102c8565b73ffffffffffffffffffffffffffffffffffffffff161461036d576040517f08c379a0000000000000000000000000000000000000000000000000000000008152600401610364906106d8565b60405180910390fd5b60018060008373ffffffffffffffffffffffffffffffffffffffff1673ffffffffffffffffffffffffffffffffffffffff16815260200190815260200160002060006101000a81548160ff02191690831515021790555050565b6103cf6104bf565b73ffffffffffffffffffffffffffffffffffffffff166103ed6102c8565b73ffffffffffffffffffffffffffffffffffffffff1614610443576040517f08c379a000000000000000000000000000000000000000000000000000000000815260040161043a906106d8565b60405180910390fd5b600073ffffffffffffffffffffffffffffffffffffffff168173ffffffffffffffffffffffffffffffffffffffff1614156104b3576040517f08c379a00000000000000000000000000000000000000000000000000000000081526004016104aa9061076a565b60405180910390fd5b6104bc816104c7565b50565b600033905090565b60008060009054906101000a900473ffffffffffffffffffffffffffffffffffffffff169050816000806101000a81548173ffffffffffffffffffffffffffffffffffffffff021916908373ffffffffffffffffffffffffffffffffffffffff1602179055508173ffffffffffffffffffffffffffffffffffffffff168173ffffffffffffffffffffffffffffffffffffffff167f8be0079c531659141344cd1fd0a4f28419497f9722a3daafe3b4186f6b6457e060405160405180910390a35050565b600080fd5b600073ffffffffffffffffffffffffffffffffffffffff82169050919050565b60006105bb82610590565b9050919050565b6105cb816105b0565b81146105d657600080fd5b50565b6000813590506105e8816105c2565b92915050565b6000602082840312156106045761060361058b565b5b6000610612848285016105d9565b91505092915050565b60008115159050919050565b6106308161061b565b82525050565b600060208201905061064b6000830184610627565b92915050565b61065a816105b0565b82525050565b60006020820190506106756000830184610651565b92915050565b600082825260208201905092915050565b7f4f776e61626c653a2063616c6c6572206973206e6f7420746865206f776e6572600082015250565b60006106c260208361067b565b91506106cd8261068c565b602082019050919050565b600060208201905081810360008301526106f1816106b5565b9050919050565b7f4f776e61626c653a206e6577206f776e657220697320746865207a65726f206160008201527f6464726573730000000000000000000000000000000000000000000000000000602082015250565b600061075460268361067b565b915061075f826106f8565b604082019050919050565b6000602082019050818103600083015261078381610747565b905091905056fea26469706673582212203751db66408cf1bf535edc744f9b92effd98160228420c64874a7b8121f18c7164736f6c63430008090033",
  "immutableReferences": {},
  "source": "\n// SPDX-License-Identifier: MIT\n\npragma solidity ^0.8.7;\n\nimport \"./subcontracts/Ownable.sol\";\n\ncontract KYCManager is Ownable {\n\n\n\n    mapping(address => bool) allowed;\n\n    function setKYCCompleted(address _addr) public onlyOwner {\n        allowed[_addr] = true;\n    }\n\n    function setKYCRevoked(address _addr) public onlyOwner {\n        allowed[_addr] = false;\n    }\n\n    function isKYCCompleted(address _addr) public view returns(bool) {\n        return allowed[_addr];\n    }\n}",
  "sourcePath": "/Users/fhildebrandt/Downloads/Lukso/Bootcamp/Tokenization/contracts/KYCManager.sol",
  "compiler": {
    "name": "solc",
    "version": "0.8.9+commit.e5eed63a.Emscripten.clang"
  },
  "schemaVersion": "3.4.3",
  "updatedAt": "2021-11-05T03:53:41.973Z",
  "networkType": "ethereum",
  "devdoc": {
    "kind": "dev",
    "methods": {
      "owner()": {
        "details": "Returns the address of the current owner."
      },
      "renounceOwnership()": {
        "details": "Leaves the contract without owner. It will not be possible to call `onlyOwner` functions anymore. Can only be called by the current owner. NOTE: Renouncing ownership will leave the contract without an owner, thereby removing any functionality that is only available to the owner."
      },
      "transferOwnership(address)": {
        "details": "Transfers ownership of the contract to a new account (`newOwner`). Can only be called by the current owner."
      }
    },
    "version": 1
  },
  "userdoc": {
    "kind": "user",
    "methods": {},
    "version": 1
  }
}